{
  "contractName": "FactoryRole",
  "abi": [
    {
      "inputs": [],
      "payable": false,
      "stateMutability": "nonpayable",
      "type": "constructor"
    },
    {
      "anonymous": false,
      "inputs": [
        {
          "indexed": true,
          "name": "account",
          "type": "address"
        }
      ],
      "name": "FactoryAdded",
      "type": "event"
    },
    {
      "anonymous": false,
      "inputs": [
        {
          "indexed": true,
          "name": "account",
          "type": "address"
        }
      ],
      "name": "FactoryRemoved",
      "type": "event"
    },
    {
      "constant": true,
      "inputs": [
        {
          "name": "account",
          "type": "address"
        }
      ],
      "name": "isFactory",
      "outputs": [
        {
          "name": "",
          "type": "bool"
        }
      ],
      "payable": false,
      "stateMutability": "view",
      "type": "function"
    },
    {
      "constant": false,
      "inputs": [
        {
          "name": "account",
          "type": "address"
        }
      ],
      "name": "addFactory",
      "outputs": [],
      "payable": false,
      "stateMutability": "nonpayable",
      "type": "function"
    },
    {
      "constant": false,
      "inputs": [],
      "name": "renounceFactory",
      "outputs": [],
      "payable": false,
      "stateMutability": "nonpayable",
      "type": "function"
    }
  ],
  "bytecode": "0x608060405234801561001057600080fd5b506100293361002e640100000000026401000000009004565b6101e8565b61004f816000610095640100000000026102a1179091906401000000009004565b8073ffffffffffffffffffffffffffffffffffffffff167f6fdc0147105e43e21da80a75b42d0fd464060d5e1a34b0cefbf0b4ccfc2e36a160405160405180910390a250565b600073ffffffffffffffffffffffffffffffffffffffff168173ffffffffffffffffffffffffffffffffffffffff16141515156100d157600080fd5b6100ea8282610154640100000000026401000000009004565b1515156100f657600080fd5b60018260000160008373ffffffffffffffffffffffffffffffffffffffff1673ffffffffffffffffffffffffffffffffffffffff16815260200190815260200160002060006101000a81548160ff0219169083151502179055505050565b60008073ffffffffffffffffffffffffffffffffffffffff168273ffffffffffffffffffffffffffffffffffffffff161415151561019157600080fd5b8260000160008373ffffffffffffffffffffffffffffffffffffffff1673ffffffffffffffffffffffffffffffffffffffff16815260200190815260200160002060009054906101000a900460ff16905092915050565b61042c806101f76000396000f300608060405260043610610057576000357c0100000000000000000000000000000000000000000000000000000000900463ffffffff1680630f04ba671461005c57806329ce1ec5146100b7578063d49bdad0146100fa575b600080fd5b34801561006857600080fd5b5061009d600480360381019080803573ffffffffffffffffffffffffffffffffffffffff169060200190929190505050610111565b604051808215151515815260200191505060405180910390f35b3480156100c357600080fd5b506100f8600480360381019080803573ffffffffffffffffffffffffffffffffffffffff16906020019092919050505061012e565b005b34801561010657600080fd5b5061010f61014e565b005b600061012782600061015990919063ffffffff16565b9050919050565b61013733610111565b151561014257600080fd5b61014b816101ed565b50565b61015733610247565b565b60008073ffffffffffffffffffffffffffffffffffffffff168273ffffffffffffffffffffffffffffffffffffffff161415151561019657600080fd5b8260000160008373ffffffffffffffffffffffffffffffffffffffff1673ffffffffffffffffffffffffffffffffffffffff16815260200190815260200160002060009054906101000a900460ff16905092915050565b6102018160006102a190919063ffffffff16565b8073ffffffffffffffffffffffffffffffffffffffff167f6fdc0147105e43e21da80a75b42d0fd464060d5e1a34b0cefbf0b4ccfc2e36a160405160405180910390a250565b61025b81600061035190919063ffffffff16565b8073ffffffffffffffffffffffffffffffffffffffff167fafa2737b2090fa39c66b7348625f0c03726240f724defbc6216d679506f9444160405160405180910390a250565b600073ffffffffffffffffffffffffffffffffffffffff168173ffffffffffffffffffffffffffffffffffffffff16141515156102dd57600080fd5b6102e78282610159565b1515156102f357600080fd5b60018260000160008373ffffffffffffffffffffffffffffffffffffffff1673ffffffffffffffffffffffffffffffffffffffff16815260200190815260200160002060006101000a81548160ff0219169083151502179055505050565b600073ffffffffffffffffffffffffffffffffffffffff168173ffffffffffffffffffffffffffffffffffffffff161415151561038d57600080fd5b6103978282610159565b15156103a257600080fd5b60008260000160008373ffffffffffffffffffffffffffffffffffffffff1673ffffffffffffffffffffffffffffffffffffffff16815260200190815260200160002060006101000a81548160ff02191690831515021790555050505600a165627a7a72305820231c54f53ec8e384e961224ee5f70b7ab51e4804b12b99f30307cc574cb54f6c0029",
  "source": "pragma solidity ^0.4.24;\n\n// Import the library 'Roles'\nimport \"./Roles.sol\";\n\n// Define a contract 'FactoryRole' to manage this role - add, remove, check\ncontract FactoryRole {\n  using Roles for Roles.Role;\n\n  // Define 2 events, one for Adding, and other for Removing\n  event FactoryAdded(address indexed account);\n  event FactoryRemoved(address indexed account);\n\n  // Define a struct 'factorys' by inheriting from 'Roles' library, struct Role\n  Roles.Role private factorys;\n\n  // In the constructor make the address that deploys this contract the 1st factory\n  constructor() public {\n    _addFactory(msg.sender);\n  }\n\n  // Define a modifier that checks to see if msg.sender has the appropriate role\n  modifier onlyFactory() {\n    require(isFactory(msg.sender));\n    _;\n  }\n\n  // Define a function 'isFactory' to check this role\n  function isFactory(address account) public view returns (bool) {\n    return factorys.has(account);\n  }\n\n  // Define a function 'addFactory' that adds this role\n  function addFactory(address account) public onlyFactory {\n    _addFactory(account);\n  }\n\n  // Define a function 'renounceFactory' to renounce this role\n  function renounceFactory() public {\n    _removeFactory(msg.sender);\n  }\n\n  // Define an internal function '_addFactory' to add this role, called by 'addFactory'\n  function _addFactory(address account) internal {\n    factorys.add(account);\n    emit FactoryAdded(account);\n  }\n\n  // Define an internal function '_removeFarmer' to remove this role, called by 'removeFarmer'\n  function _removeFactory(address account) internal {\n    factorys.remove(account);\n    emit FactoryRemoved(account);\n  }\n}",
  "sourcePath": "C:\\Research\\Udacity\\Blockchain\\6. Term 2  Blockchain Developer Architecture and Applications\\Projects\\Proj2 - Architect Blockchain supply Chain B\\CODE\\Final Project 6 Part B\\project-6\\contracts\\musicaccesscontrol\\FactoryRole.sol",
  "compiler": {
    "name": "solc",
    "version": "0.4.24+commit.e67f0147.Emscripten.clang"
  },
  "schemaVersion": "2.0.1",
  "updatedAt": "2019-03-18T22:25:59.667Z"
}