{
  "contractName": "RecordCompanyRole",
  "abi": [
    {
      "inputs": [],
      "payable": false,
      "stateMutability": "nonpayable",
      "type": "constructor"
    },
    {
      "anonymous": false,
      "inputs": [
        {
          "indexed": true,
          "name": "account",
          "type": "address"
        }
      ],
      "name": "RecordCompanyAdded",
      "type": "event"
    },
    {
      "anonymous": false,
      "inputs": [
        {
          "indexed": true,
          "name": "account",
          "type": "address"
        }
      ],
      "name": "RecordCompanyRemoved",
      "type": "event"
    },
    {
      "constant": true,
      "inputs": [
        {
          "name": "account",
          "type": "address"
        }
      ],
      "name": "isRecordCompany",
      "outputs": [
        {
          "name": "",
          "type": "bool"
        }
      ],
      "payable": false,
      "stateMutability": "view",
      "type": "function"
    },
    {
      "constant": false,
      "inputs": [
        {
          "name": "account",
          "type": "address"
        }
      ],
      "name": "addRecordCompany",
      "outputs": [],
      "payable": false,
      "stateMutability": "nonpayable",
      "type": "function"
    },
    {
      "constant": false,
      "inputs": [],
      "name": "renounceRecordCompany",
      "outputs": [],
      "payable": false,
      "stateMutability": "nonpayable",
      "type": "function"
    }
  ],
  "bytecode": "0x608060405234801561001057600080fd5b506100293361002e640100000000026401000000009004565b6101e8565b61004f816000610095640100000000026102a1179091906401000000009004565b8073ffffffffffffffffffffffffffffffffffffffff167f7e50d052c9339ec749fa526d5f5266a1ba556e8cc2160cc2649e104dc8927e9c60405160405180910390a250565b600073ffffffffffffffffffffffffffffffffffffffff168173ffffffffffffffffffffffffffffffffffffffff16141515156100d157600080fd5b6100ea8282610154640100000000026401000000009004565b1515156100f657600080fd5b60018260000160008373ffffffffffffffffffffffffffffffffffffffff1673ffffffffffffffffffffffffffffffffffffffff16815260200190815260200160002060006101000a81548160ff0219169083151502179055505050565b60008073ffffffffffffffffffffffffffffffffffffffff168273ffffffffffffffffffffffffffffffffffffffff161415151561019157600080fd5b8260000160008373ffffffffffffffffffffffffffffffffffffffff1673ffffffffffffffffffffffffffffffffffffffff16815260200190815260200160002060009054906101000a900460ff16905092915050565b61042c806101f76000396000f300608060405260043610610057576000357c0100000000000000000000000000000000000000000000000000000000900463ffffffff168063294929ef1461005c5780632ceebb65146100b7578063a35ec3cc146100fa575b600080fd5b34801561006857600080fd5b5061009d600480360381019080803573ffffffffffffffffffffffffffffffffffffffff169060200190929190505050610111565b604051808215151515815260200191505060405180910390f35b3480156100c357600080fd5b506100f8600480360381019080803573ffffffffffffffffffffffffffffffffffffffff16906020019092919050505061012e565b005b34801561010657600080fd5b5061010f61014e565b005b600061012782600061015990919063ffffffff16565b9050919050565b61013733610111565b151561014257600080fd5b61014b816101ed565b50565b61015733610247565b565b60008073ffffffffffffffffffffffffffffffffffffffff168273ffffffffffffffffffffffffffffffffffffffff161415151561019657600080fd5b8260000160008373ffffffffffffffffffffffffffffffffffffffff1673ffffffffffffffffffffffffffffffffffffffff16815260200190815260200160002060009054906101000a900460ff16905092915050565b6102018160006102a190919063ffffffff16565b8073ffffffffffffffffffffffffffffffffffffffff167f7e50d052c9339ec749fa526d5f5266a1ba556e8cc2160cc2649e104dc8927e9c60405160405180910390a250565b61025b81600061035190919063ffffffff16565b8073ffffffffffffffffffffffffffffffffffffffff167f3d3ce02a6873a67f7eef5d3a13b9ceaee08bb80200c3349e105f4c8ffce691bd60405160405180910390a250565b600073ffffffffffffffffffffffffffffffffffffffff168173ffffffffffffffffffffffffffffffffffffffff16141515156102dd57600080fd5b6102e78282610159565b1515156102f357600080fd5b60018260000160008373ffffffffffffffffffffffffffffffffffffffff1673ffffffffffffffffffffffffffffffffffffffff16815260200190815260200160002060006101000a81548160ff0219169083151502179055505050565b600073ffffffffffffffffffffffffffffffffffffffff168173ffffffffffffffffffffffffffffffffffffffff161415151561038d57600080fd5b6103978282610159565b15156103a257600080fd5b60008260000160008373ffffffffffffffffffffffffffffffffffffffff1673ffffffffffffffffffffffffffffffffffffffff16815260200190815260200160002060006101000a81548160ff02191690831515021790555050505600a165627a7a723058204a0a18564378bb37fad2dda315997e4c9d4ec49f5045587857839a2f0cc86a320029",
  "source": "pragma solidity ^0.4.24;\n\n// Import the library 'Roles'\nimport \"./Roles.sol\";\n\n// Define a contract 'RecordCompanyRole' to manage this role - add, remove, check\ncontract RecordCompanyRole {\n  using Roles for Roles.Role;\n\n  // Define 2 events, one for Adding, and other for Removing\n  event RecordCompanyAdded(address indexed account);\n  event RecordCompanyRemoved(address indexed account);\n\n  // Define a struct 'recordCompanys' by inheriting from 'Roles' library, struct Role\n  Roles.Role private recordCompanys;\n\n  // In the constructor make the address that deploys this contract the 1st recordCompany\n  constructor() public {\n    _addRecordCompany(msg.sender);\n  }\n\n  // Define a modifier that checks to see if msg.sender has the appropriate role\n  modifier onlyRecordCompany() {\n    require(isRecordCompany(msg.sender));\n    _;\n  }\n\n  // Define a function 'isRecordCompany' to check this role\n  function isRecordCompany(address account) public view returns (bool) {\n    return recordCompanys.has(account);\n  }\n\n  // Define a function 'addRecordCompany' that adds this role\n  function addRecordCompany(address account) public onlyRecordCompany {\n    _addRecordCompany(account);\n  }\n\n  // Define a function 'renounceRecordCompany' to renounce this role\n  function renounceRecordCompany() public {\n    _removeRecordCompany(msg.sender);\n  }\n\n  // Define an internal function '_addRecordCompany' to add this role, called by 'addRecordCompany'\n  function _addRecordCompany(address account) internal {\n    recordCompanys.add(account);\n    emit RecordCompanyAdded(account);\n  }\n\n  // Define an internal function '_removeFarmer' to remove this role, called by 'removeFarmer'\n  function _removeRecordCompany(address account) internal {\n    recordCompanys.remove(account);\n    emit RecordCompanyRemoved(account);\n  }\n}",
  "sourcePath": "C:\\Research\\Udacity\\Blockchain\\6. Term 2  Blockchain Developer Architecture and Applications\\Projects\\Proj2 - Architect Blockchain supply Chain B\\CODE\\Final Project 6 Part B\\project-6\\contracts\\musicaccesscontrol\\RecordCompanyRole.sol",
  "compiler": {
    "name": "solc",
    "version": "0.4.24+commit.e67f0147.Emscripten.clang"
  },
  "schemaVersion": "2.0.1",
  "updatedAt": "2019-03-18T22:25:59.669Z"
}