{
  "contractName": "SupplyChain",
  "abi": [
    {
      "constant": true,
      "inputs": [
        {
          "name": "account",
          "type": "address"
        }
      ],
      "name": "isFactory",
      "outputs": [
        {
          "name": "",
          "type": "bool"
        }
      ],
      "payable": false,
      "stateMutability": "view",
      "type": "function"
    },
    {
      "constant": false,
      "inputs": [
        {
          "name": "account",
          "type": "address"
        }
      ],
      "name": "addConsumer",
      "outputs": [],
      "payable": false,
      "stateMutability": "nonpayable",
      "type": "function"
    },
    {
      "constant": true,
      "inputs": [
        {
          "name": "account",
          "type": "address"
        }
      ],
      "name": "isRecordCompany",
      "outputs": [
        {
          "name": "",
          "type": "bool"
        }
      ],
      "payable": false,
      "stateMutability": "view",
      "type": "function"
    },
    {
      "constant": false,
      "inputs": [
        {
          "name": "account",
          "type": "address"
        }
      ],
      "name": "addFactory",
      "outputs": [],
      "payable": false,
      "stateMutability": "nonpayable",
      "type": "function"
    },
    {
      "constant": false,
      "inputs": [
        {
          "name": "account",
          "type": "address"
        }
      ],
      "name": "addRecordCompany",
      "outputs": [],
      "payable": false,
      "stateMutability": "nonpayable",
      "type": "function"
    },
    {
      "constant": false,
      "inputs": [
        {
          "name": "account",
          "type": "address"
        }
      ],
      "name": "addArtist",
      "outputs": [],
      "payable": false,
      "stateMutability": "nonpayable",
      "type": "function"
    },
    {
      "constant": true,
      "inputs": [
        {
          "name": "account",
          "type": "address"
        }
      ],
      "name": "isRetailer",
      "outputs": [
        {
          "name": "",
          "type": "bool"
        }
      ],
      "payable": false,
      "stateMutability": "view",
      "type": "function"
    },
    {
      "constant": false,
      "inputs": [],
      "name": "renounceConsumer",
      "outputs": [],
      "payable": false,
      "stateMutability": "nonpayable",
      "type": "function"
    },
    {
      "constant": false,
      "inputs": [],
      "name": "renounceDistributor",
      "outputs": [],
      "payable": false,
      "stateMutability": "nonpayable",
      "type": "function"
    },
    {
      "constant": true,
      "inputs": [
        {
          "name": "account",
          "type": "address"
        }
      ],
      "name": "isArtist",
      "outputs": [
        {
          "name": "",
          "type": "bool"
        }
      ],
      "payable": false,
      "stateMutability": "view",
      "type": "function"
    },
    {
      "constant": false,
      "inputs": [],
      "name": "renounceOwnership",
      "outputs": [],
      "payable": false,
      "stateMutability": "nonpayable",
      "type": "function"
    },
    {
      "constant": false,
      "inputs": [
        {
          "name": "account",
          "type": "address"
        }
      ],
      "name": "addDistributor",
      "outputs": [],
      "payable": false,
      "stateMutability": "nonpayable",
      "type": "function"
    },
    {
      "constant": true,
      "inputs": [
        {
          "name": "account",
          "type": "address"
        }
      ],
      "name": "isConsumer",
      "outputs": [
        {
          "name": "",
          "type": "bool"
        }
      ],
      "payable": false,
      "stateMutability": "view",
      "type": "function"
    },
    {
      "constant": true,
      "inputs": [],
      "name": "owner",
      "outputs": [
        {
          "name": "",
          "type": "address"
        }
      ],
      "payable": false,
      "stateMutability": "view",
      "type": "function"
    },
    {
      "constant": false,
      "inputs": [
        {
          "name": "account",
          "type": "address"
        }
      ],
      "name": "addRetailer",
      "outputs": [],
      "payable": false,
      "stateMutability": "nonpayable",
      "type": "function"
    },
    {
      "constant": true,
      "inputs": [
        {
          "name": "account",
          "type": "address"
        }
      ],
      "name": "isDistributor",
      "outputs": [
        {
          "name": "",
          "type": "bool"
        }
      ],
      "payable": false,
      "stateMutability": "view",
      "type": "function"
    },
    {
      "constant": true,
      "inputs": [],
      "name": "isOwner",
      "outputs": [
        {
          "name": "",
          "type": "bool"
        }
      ],
      "payable": false,
      "stateMutability": "view",
      "type": "function"
    },
    {
      "constant": true,
      "inputs": [],
      "name": "ownerAddress",
      "outputs": [
        {
          "name": "",
          "type": "address"
        }
      ],
      "payable": false,
      "stateMutability": "view",
      "type": "function"
    },
    {
      "constant": false,
      "inputs": [],
      "name": "renounceRecordCompany",
      "outputs": [],
      "payable": false,
      "stateMutability": "nonpayable",
      "type": "function"
    },
    {
      "constant": false,
      "inputs": [],
      "name": "renounceArtist",
      "outputs": [],
      "payable": false,
      "stateMutability": "nonpayable",
      "type": "function"
    },
    {
      "constant": false,
      "inputs": [],
      "name": "renounceFactory",
      "outputs": [],
      "payable": false,
      "stateMutability": "nonpayable",
      "type": "function"
    },
    {
      "constant": false,
      "inputs": [],
      "name": "renounceRetailer",
      "outputs": [],
      "payable": false,
      "stateMutability": "nonpayable",
      "type": "function"
    },
    {
      "constant": false,
      "inputs": [
        {
          "name": "newOwner",
          "type": "address"
        }
      ],
      "name": "transferOwnership",
      "outputs": [],
      "payable": false,
      "stateMutability": "nonpayable",
      "type": "function"
    },
    {
      "inputs": [],
      "payable": true,
      "stateMutability": "payable",
      "type": "constructor"
    },
    {
      "anonymous": false,
      "inputs": [
        {
          "indexed": false,
          "name": "upc",
          "type": "uint256"
        }
      ],
      "name": "Composed",
      "type": "event"
    },
    {
      "anonymous": false,
      "inputs": [
        {
          "indexed": false,
          "name": "upc",
          "type": "uint256"
        }
      ],
      "name": "Paid",
      "type": "event"
    },
    {
      "anonymous": false,
      "inputs": [
        {
          "indexed": false,
          "name": "upc",
          "type": "uint256"
        }
      ],
      "name": "Mixed",
      "type": "event"
    },
    {
      "anonymous": false,
      "inputs": [
        {
          "indexed": false,
          "name": "upc",
          "type": "uint256"
        }
      ],
      "name": "Mastered",
      "type": "event"
    },
    {
      "anonymous": false,
      "inputs": [
        {
          "indexed": false,
          "name": "upc",
          "type": "uint256"
        }
      ],
      "name": "Contracted",
      "type": "event"
    },
    {
      "anonymous": false,
      "inputs": [
        {
          "indexed": false,
          "name": "upc",
          "type": "uint256"
        }
      ],
      "name": "Packed",
      "type": "event"
    },
    {
      "anonymous": false,
      "inputs": [
        {
          "indexed": false,
          "name": "upc",
          "type": "uint256"
        }
      ],
      "name": "Shipped",
      "type": "event"
    },
    {
      "anonymous": false,
      "inputs": [
        {
          "indexed": false,
          "name": "upc",
          "type": "uint256"
        }
      ],
      "name": "Received",
      "type": "event"
    },
    {
      "anonymous": false,
      "inputs": [
        {
          "indexed": false,
          "name": "upc",
          "type": "uint256"
        }
      ],
      "name": "Purchased",
      "type": "event"
    },
    {
      "anonymous": false,
      "inputs": [
        {
          "indexed": true,
          "name": "account",
          "type": "address"
        }
      ],
      "name": "RetailerAdded",
      "type": "event"
    },
    {
      "anonymous": false,
      "inputs": [
        {
          "indexed": true,
          "name": "account",
          "type": "address"
        }
      ],
      "name": "RetailerRemoved",
      "type": "event"
    },
    {
      "anonymous": false,
      "inputs": [
        {
          "indexed": true,
          "name": "account",
          "type": "address"
        }
      ],
      "name": "FactoryAdded",
      "type": "event"
    },
    {
      "anonymous": false,
      "inputs": [
        {
          "indexed": true,
          "name": "account",
          "type": "address"
        }
      ],
      "name": "FactoryRemoved",
      "type": "event"
    },
    {
      "anonymous": false,
      "inputs": [
        {
          "indexed": true,
          "name": "account",
          "type": "address"
        }
      ],
      "name": "RecordCompanyAdded",
      "type": "event"
    },
    {
      "anonymous": false,
      "inputs": [
        {
          "indexed": true,
          "name": "account",
          "type": "address"
        }
      ],
      "name": "RecordCompanyRemoved",
      "type": "event"
    },
    {
      "anonymous": false,
      "inputs": [
        {
          "indexed": true,
          "name": "account",
          "type": "address"
        }
      ],
      "name": "ArtistAdded",
      "type": "event"
    },
    {
      "anonymous": false,
      "inputs": [
        {
          "indexed": true,
          "name": "account",
          "type": "address"
        }
      ],
      "name": "ArtistRemoved",
      "type": "event"
    },
    {
      "anonymous": false,
      "inputs": [
        {
          "indexed": true,
          "name": "account",
          "type": "address"
        }
      ],
      "name": "DistributorAdded",
      "type": "event"
    },
    {
      "anonymous": false,
      "inputs": [
        {
          "indexed": true,
          "name": "account",
          "type": "address"
        }
      ],
      "name": "DistributorRemoved",
      "type": "event"
    },
    {
      "anonymous": false,
      "inputs": [
        {
          "indexed": true,
          "name": "account",
          "type": "address"
        }
      ],
      "name": "ConsumerAdded",
      "type": "event"
    },
    {
      "anonymous": false,
      "inputs": [
        {
          "indexed": true,
          "name": "account",
          "type": "address"
        }
      ],
      "name": "ConsumerRemoved",
      "type": "event"
    },
    {
      "anonymous": false,
      "inputs": [
        {
          "indexed": true,
          "name": "oldOwner",
          "type": "address"
        },
        {
          "indexed": true,
          "name": "newOwner",
          "type": "address"
        }
      ],
      "name": "TransferOwnership",
      "type": "event"
    },
    {
      "constant": false,
      "inputs": [],
      "name": "kill",
      "outputs": [],
      "payable": false,
      "stateMutability": "nonpayable",
      "type": "function"
    },
    {
      "constant": false,
      "inputs": [
        {
          "name": "_upc",
          "type": "uint256"
        },
        {
          "name": "_musicTitle",
          "type": "string"
        },
        {
          "name": "_recordCompanyID",
          "type": "address"
        },
        {
          "name": "_originArtistID",
          "type": "address"
        },
        {
          "name": "_originArtistName",
          "type": "string"
        },
        {
          "name": "_originArtistInformation",
          "type": "string"
        },
        {
          "name": "_originRecordCompanyLatitude",
          "type": "string"
        },
        {
          "name": "_originRecordCompanyLongitude",
          "type": "string"
        },
        {
          "name": "_productNotes",
          "type": "string"
        }
      ],
      "name": "composeItem",
      "outputs": [],
      "payable": false,
      "stateMutability": "nonpayable",
      "type": "function"
    },
    {
      "constant": false,
      "inputs": [
        {
          "name": "_upc",
          "type": "uint256"
        }
      ],
      "name": "payRoyaltyItem",
      "outputs": [],
      "payable": false,
      "stateMutability": "nonpayable",
      "type": "function"
    },
    {
      "constant": false,
      "inputs": [
        {
          "name": "_upc",
          "type": "uint256"
        },
        {
          "name": "_musicMixInfo",
          "type": "string"
        }
      ],
      "name": "createMusicMix",
      "outputs": [],
      "payable": false,
      "stateMutability": "nonpayable",
      "type": "function"
    },
    {
      "constant": false,
      "inputs": [
        {
          "name": "_upc",
          "type": "uint256"
        },
        {
          "name": "_musicMasterInfo",
          "type": "string"
        }
      ],
      "name": "createMusicMaster",
      "outputs": [],
      "payable": false,
      "stateMutability": "nonpayable",
      "type": "function"
    },
    {
      "constant": false,
      "inputs": [
        {
          "name": "_upc",
          "type": "uint256"
        },
        {
          "name": "_distributorID",
          "type": "address"
        }
      ],
      "name": "sellItem",
      "outputs": [],
      "payable": false,
      "stateMutability": "nonpayable",
      "type": "function"
    },
    {
      "constant": false,
      "inputs": [
        {
          "name": "_upc",
          "type": "uint256"
        },
        {
          "name": "_factoryID",
          "type": "address"
        }
      ],
      "name": "buyDiscsAndCases",
      "outputs": [],
      "payable": false,
      "stateMutability": "nonpayable",
      "type": "function"
    },
    {
      "constant": false,
      "inputs": [
        {
          "name": "_upc",
          "type": "uint256"
        }
      ],
      "name": "packItem",
      "outputs": [],
      "payable": false,
      "stateMutability": "nonpayable",
      "type": "function"
    },
    {
      "constant": false,
      "inputs": [
        {
          "name": "_upc",
          "type": "uint256"
        },
        {
          "name": "_retailerID",
          "type": "address"
        }
      ],
      "name": "shipItem",
      "outputs": [],
      "payable": false,
      "stateMutability": "nonpayable",
      "type": "function"
    },
    {
      "constant": false,
      "inputs": [
        {
          "name": "_upc",
          "type": "uint256"
        },
        {
          "name": "_price",
          "type": "uint256"
        }
      ],
      "name": "receiveItem",
      "outputs": [],
      "payable": false,
      "stateMutability": "nonpayable",
      "type": "function"
    },
    {
      "constant": false,
      "inputs": [
        {
          "name": "_upc",
          "type": "uint256"
        }
      ],
      "name": "purchaseItem",
      "outputs": [],
      "payable": true,
      "stateMutability": "payable",
      "type": "function"
    },
    {
      "constant": true,
      "inputs": [
        {
          "name": "_upc",
          "type": "uint256"
        }
      ],
      "name": "fetchItemBufferOne",
      "outputs": [
        {
          "name": "itemSKU",
          "type": "uint256"
        },
        {
          "name": "itemUPC",
          "type": "uint256"
        },
        {
          "name": "ownerID",
          "type": "address"
        },
        {
          "name": "originArtistID",
          "type": "address"
        },
        {
          "name": "originArtistName",
          "type": "string"
        },
        {
          "name": "originArtistInformation",
          "type": "string"
        },
        {
          "name": "musicTitle",
          "type": "string"
        },
        {
          "name": "recordCompanyID",
          "type": "address"
        }
      ],
      "payable": false,
      "stateMutability": "view",
      "type": "function"
    },
    {
      "constant": true,
      "inputs": [
        {
          "name": "_upc",
          "type": "uint256"
        }
      ],
      "name": "fetchItemBufferTwo",
      "outputs": [
        {
          "name": "itemSKU",
          "type": "uint256"
        },
        {
          "name": "itemUPC",
          "type": "uint256"
        },
        {
          "name": "productID",
          "type": "uint256"
        },
        {
          "name": "productNotes",
          "type": "string"
        },
        {
          "name": "productPrice",
          "type": "uint256"
        },
        {
          "name": "itemState",
          "type": "uint256"
        },
        {
          "name": "distributorID",
          "type": "address"
        },
        {
          "name": "retailerID",
          "type": "address"
        },
        {
          "name": "consumerID",
          "type": "address"
        }
      ],
      "payable": false,
      "stateMutability": "view",
      "type": "function"
    }
  ],
  "bytecode": "0x6080604052336000806101000a81548173ffffffffffffffffffffffffffffffffffffffff021916908373ffffffffffffffffffffffffffffffffffffffff1602179055506000809054906101000a900473ffffffffffffffffffffffffffffffffffffffff1673ffffffffffffffffffffffffffffffffffffffff16600073ffffffffffffffffffffffffffffffffffffffff167f5c486528ec3e3f0ea91181cff8116f02bfa350e03b8b6f12e00765adbb5af85c60405160405180910390a3620000da33620001b3640100000000026401000000009004565b620000f4336200021d640100000000026401000000009004565b6200010e3362000287640100000000026401000000009004565b6200012833620002f1640100000000026401000000009004565b62000142336200035b640100000000026401000000009004565b6200015c33620003c5640100000000026401000000009004565b33600860006101000a81548173ffffffffffffffffffffffffffffffffffffffff021916908373ffffffffffffffffffffffffffffffffffffffff1602179055506001600a81905550600160098190555062000587565b620001d78160016200042f64010000000002620031da179091906401000000009004565b8073ffffffffffffffffffffffffffffffffffffffff167f28b26e7a3d20aedbc5f8f2ebf7da671c0491723a2b78f47a097b0e46dee0714260405160405180910390a250565b620002418160026200042f64010000000002620031da179091906401000000009004565b8073ffffffffffffffffffffffffffffffffffffffff167fddbf200aa634dc3fb81cfd68583dd1040d1c751d335e1d86b631bde3e977fea860405160405180910390a250565b620002ab8160036200042f64010000000002620031da179091906401000000009004565b8073ffffffffffffffffffffffffffffffffffffffff167fcbfc96fa35f269722f7abab67c3e11fbfd63618e2e593bdf481f2818e8e8304260405160405180910390a250565b620003158160046200042f64010000000002620031da179091906401000000009004565b8073ffffffffffffffffffffffffffffffffffffffff167f7e50d052c9339ec749fa526d5f5266a1ba556e8cc2160cc2649e104dc8927e9c60405160405180910390a250565b6200037f8160056200042f64010000000002620031da179091906401000000009004565b8073ffffffffffffffffffffffffffffffffffffffff167f6fdc0147105e43e21da80a75b42d0fd464060d5e1a34b0cefbf0b4ccfc2e36a160405160405180910390a250565b620003e98160066200042f64010000000002620031da179091906401000000009004565b8073ffffffffffffffffffffffffffffffffffffffff167f71ae26cad02663e3d92efd6ec56031a80d74a20c0ab4183faa8bf262261c9baa60405160405180910390a250565b600073ffffffffffffffffffffffffffffffffffffffff168173ffffffffffffffffffffffffffffffffffffffff16141515156200046c57600080fd5b620004878282620004f2640100000000026401000000009004565b1515156200049457600080fd5b60018260000160008373ffffffffffffffffffffffffffffffffffffffff1673ffffffffffffffffffffffffffffffffffffffff16815260200190815260200160002060006101000a81548160ff0219169083151502179055505050565b60008073ffffffffffffffffffffffffffffffffffffffff168273ffffffffffffffffffffffffffffffffffffffff16141515156200053057600080fd5b8260000160008373ffffffffffffffffffffffffffffffffffffffff1673ffffffffffffffffffffffffffffffffffffffff16815260200190815260200160002060009054906101000a900460ff16905092915050565b61348a80620005976000396000f3006080604052600436106101c2576000357c0100000000000000000000000000000000000000000000000000000000900463ffffffff1680630f04ba67146101c7578063112940f914610222578063294929ef1461026557806329ce1ec5146102c05780632ceebb65146103035780633c10e3591461034657806341c0e1b5146103935780634d287f2b146103aa5780635da09b88146103ed57806361e6982d14610448578063644241db1461045f57806366225ff9146104765780636b2f65b0146105d8578063715018a6146106335780637250e2241461064a57806377c459131461068d57806381326559146108b2578063834ff739146109255780638da5cb5b146109805780638ec4f505146109d75780638f0c86fa14610a1a5780638f32d59b14610a755780638f84aa0914610aa4578063a35ec3cc14610afb578063ad97308c14610b12578063b22d799314610b5f578063b4df3c7d14610bd2578063b50f60e714610bff578063b7e8b9c714610c36578063bb4f288d14610c4d578063c52e9f8d14610c9a578063d38ea5bf14610eab578063d49bdad014610ecb578063db0e6a2f14610ee2578063f2fde38b14610ef9578063f30fc48014610f3c575b600080fd5b3480156101d357600080fd5b50610208600480360381019080803573ffffffffffffffffffffffffffffffffffffffff169060200190929190505050610f69565b604051808215151515815260200191505060405180910390f35b34801561022e57600080fd5b50610263600480360381019080803573ffffffffffffffffffffffffffffffffffffffff169060200190929190505050610f86565b005b34801561027157600080fd5b506102a6600480360381019080803573ffffffffffffffffffffffffffffffffffffffff169060200190929190505050610fa6565b604051808215151515815260200191505060405180910390f35b3480156102cc57600080fd5b50610301600480360381019080803573ffffffffffffffffffffffffffffffffffffffff169060200190929190505050610fc3565b005b34801561030f57600080fd5b50610344600480360381019080803573ffffffffffffffffffffffffffffffffffffffff169060200190929190505050610fe3565b005b34801561035257600080fd5b5061039160048036038101908080359060200190929190803573ffffffffffffffffffffffffffffffffffffffff169060200190929190505050611003565b005b34801561039f57600080fd5b506103a8611129565b005b3480156103b657600080fd5b506103eb600480360381019080803573ffffffffffffffffffffffffffffffffffffffff1690602001909291905050506111bc565b005b3480156103f957600080fd5b5061042e600480360381019080803573ffffffffffffffffffffffffffffffffffffffff1690602001909291905050506111dc565b604051808215151515815260200191505060405180910390f35b34801561045457600080fd5b5061045d6111f9565b005b34801561046b57600080fd5b50610474611204565b005b34801561048257600080fd5b506104a16004803603810190808035906020019092919050505061120f565b604051808a8152602001898152602001888152602001806020018781526020018681526020018573ffffffffffffffffffffffffffffffffffffffff1673ffffffffffffffffffffffffffffffffffffffff1681526020018473ffffffffffffffffffffffffffffffffffffffff1673ffffffffffffffffffffffffffffffffffffffff1681526020018373ffffffffffffffffffffffffffffffffffffffff1673ffffffffffffffffffffffffffffffffffffffff168152602001828103825288818151815260200191508051906020019080838360005b8381101561059557808201518184015260208101905061057a565b50505050905090810190601f1680156105c25780820380516001836020036101000a031916815260200191505b509a505050505050505050505060405180910390f35b3480156105e457600080fd5b50610619600480360381019080803573ffffffffffffffffffffffffffffffffffffffff169060200190929190505050611437565b604051808215151515815260200191505060405180910390f35b34801561063f57600080fd5b50610648611454565b005b34801561065657600080fd5b5061068b600480360381019080803573ffffffffffffffffffffffffffffffffffffffff169060200190929190505050611526565b005b34801561069957600080fd5b506106b860048036038101908080359060200190929190505050611546565b604051808981526020018881526020018773ffffffffffffffffffffffffffffffffffffffff1673ffffffffffffffffffffffffffffffffffffffff1681526020018673ffffffffffffffffffffffffffffffffffffffff1673ffffffffffffffffffffffffffffffffffffffff1681526020018060200180602001806020018573ffffffffffffffffffffffffffffffffffffffff1673ffffffffffffffffffffffffffffffffffffffff168152602001848103845288818151815260200191508051906020019080838360005b838110156107a2578082015181840152602081019050610787565b50505050905090810190601f1680156107cf5780820380516001836020036101000a031916815260200191505b50848103835287818151815260200191508051906020019080838360005b838110156108085780820151818401526020810190506107ed565b50505050905090810190601f1680156108355780820380516001836020036101000a031916815260200191505b50848103825286818151815260200191508051906020019080838360005b8381101561086e578082015181840152602081019050610853565b50505050905090810190601f16801561089b5780820380516001836020036101000a031916815260200191505b509b50505050505050505050505060405180910390f35b3480156108be57600080fd5b5061092360048036038101908080359060200190929190803590602001908201803590602001908080601f0160208091040260200160405190810160405280939291908181526020018383808284378201915050505050509192919290505050611866565b005b34801561093157600080fd5b50610966600480360381019080803573ffffffffffffffffffffffffffffffffffffffff169060200190929190505050611a07565b604051808215151515815260200191505060405180910390f35b34801561098c57600080fd5b50610995611a24565b604051808273ffffffffffffffffffffffffffffffffffffffff1673ffffffffffffffffffffffffffffffffffffffff16815260200191505060405180910390f35b3480156109e357600080fd5b50610a18600480360381019080803573ffffffffffffffffffffffffffffffffffffffff169060200190929190505050611a4d565b005b348015610a2657600080fd5b50610a5b600480360381019080803573ffffffffffffffffffffffffffffffffffffffff169060200190929190505050611a6d565b604051808215151515815260200191505060405180910390f35b348015610a8157600080fd5b50610a8a611a8a565b604051808215151515815260200191505060405180910390f35b348015610ab057600080fd5b50610ab9611ae1565b604051808273ffffffffffffffffffffffffffffffffffffffff1673ffffffffffffffffffffffffffffffffffffffff16815260200191505060405180910390f35b348015610b0757600080fd5b50610b10611b0a565b005b348015610b1e57600080fd5b50610b5d60048036038101908080359060200190929190803573ffffffffffffffffffffffffffffffffffffffff169060200190929190505050611b15565b005b348015610b6b57600080fd5b50610bd060048036038101908080359060200190929190803590602001908201803590602001908080601f0160208091040260200160405190810160405280939291908181526020018383808284378201915050505050509192919290505050611d3e565b005b348015610bde57600080fd5b50610bfd60048036038101908080359060200190929190505050611ea9565b005b348015610c0b57600080fd5b50610c3460048036038101908080359060200190929190803590602001909291905050506120b2565b005b348015610c4257600080fd5b50610c4b61220d565b005b348015610c5957600080fd5b50610c9860048036038101908080359060200190929190803573ffffffffffffffffffffffffffffffffffffffff169060200190929190505050612218565b005b348015610ca657600080fd5b50610ea960048036038101908080359060200190929190803590602001908201803590602001908080601f0160208091040260200160405190810160405280939291908181526020018383808284378201915050505050509192919290803573ffffffffffffffffffffffffffffffffffffffff169060200190929190803573ffffffffffffffffffffffffffffffffffffffff169060200190929190803590602001908201803590602001908080601f0160208091040260200160405190810160405280939291908181526020018383808284378201915050505050509192919290803590602001908201803590602001908080601f0160208091040260200160405190810160405280939291908181526020018383808284378201915050505050509192919290803590602001908201803590602001908080601f0160208091040260200160405190810160405280939291908181526020018383808284378201915050505050509192919290803590602001908201803590602001908080601f0160208091040260200160405190810160405280939291908181526020018383808284378201915050505050509192919290803590602001908201803590602001908080601f01602080910402602001604051908101604052809392919081815260200183838082843782019150505050505091929192905050506123b6565b005b610ec9600480360381019080803590602001909291905050506128dc565b005b348015610ed757600080fd5b50610ee0612aa0565b005b348015610eee57600080fd5b50610ef7612aab565b005b348015610f0557600080fd5b50610f3a600480360381019080803573ffffffffffffffffffffffffffffffffffffffff169060200190929190505050612ab6565b005b348015610f4857600080fd5b50610f6760048036038101908080359060200190929190505050612ad5565b005b6000610f7f826005612c1490919063ffffffff16565b9050919050565b610f8f33611a07565b1515610f9a57600080fd5b610fa381612ca8565b50565b6000610fbc826004612c1490919063ffffffff16565b9050919050565b610fcc33610f69565b1515610fd757600080fd5b610fe081612d02565b50565b610fec33610fa6565b1515610ff757600080fd5b61100081612d5c565b50565b816004600881111561101157fe5b600b6000838152602001908152602001600020600e0160009054906101000a900460ff16600881111561104057fe5b14151561104c57600080fd5b600b600084815260200190815260200160002060020160009054906101000a900473ffffffffffffffffffffffffffffffffffffffff168073ffffffffffffffffffffffffffffffffffffffff163373ffffffffffffffffffffffffffffffffffffffff161415156110bd57600080fd5b6110c633611a6d565b15156110ce57fe5b82600b600086815260200190815260200160002060100160006101000a81548173ffffffffffffffffffffffffffffffffffffffff021916908373ffffffffffffffffffffffffffffffffffffffff16021790555050505050565b600860009054906101000a900473ffffffffffffffffffffffffffffffffffffffff1673ffffffffffffffffffffffffffffffffffffffff163373ffffffffffffffffffffffffffffffffffffffff1614156111ba57600860009054906101000a900473ffffffffffffffffffffffffffffffffffffffff1673ffffffffffffffffffffffffffffffffffffffff16ff5b565b6111c533611437565b15156111d057600080fd5b6111d981612db6565b50565b60006111f2826006612c1490919063ffffffff16565b9050919050565b61120233612e10565b565b61120d33612e6a565b565b600080600060606000806000806000600b60008b8152602001908152602001600020600001549850600b60008b8152602001908152602001600020600101549750600b60008b8152602001908152602001600020600a01549650600b60008b8152602001908152602001600020600b018054600181600116156101000203166002900480601f0160208091040260200160405190810160405280929190818152602001828054600181600116156101000203166002900480156113135780601f106112e857610100808354040283529160200191611313565b820191906000526020600020905b8154815290600101906020018083116112f657829003601f168201915b50505050509550600b60008b8152602001908152602001600020600c01549450600b60008b8152602001908152602001600020600e0160009054906101000a900460ff16600881111561136257fe5b9350600b60008b8152602001908152602001600020600f0160009054906101000a900473ffffffffffffffffffffffffffffffffffffffff169250600b60008b815260200190815260200160002060110160009054906101000a900473ffffffffffffffffffffffffffffffffffffffff169150600b60008b815260200190815260200160002060120160009054906101000a900473ffffffffffffffffffffffffffffffffffffffff1690508888888888888888889850985098509850985098509850985098509193959799909294969850565b600061144d826003612c1490919063ffffffff16565b9050919050565b61145c611a8a565b151561146757600080fd5b600073ffffffffffffffffffffffffffffffffffffffff166000809054906101000a900473ffffffffffffffffffffffffffffffffffffffff1673ffffffffffffffffffffffffffffffffffffffff167f5c486528ec3e3f0ea91181cff8116f02bfa350e03b8b6f12e00765adbb5af85c60405160405180910390a360008060006101000a81548173ffffffffffffffffffffffffffffffffffffffff021916908373ffffffffffffffffffffffffffffffffffffffff160217905550565b61152f33611a6d565b151561153a57600080fd5b61154381612ec4565b50565b60008060008060608060606000600b60008a8152602001908152602001600020600001549750600b60008a8152602001908152602001600020600101549650600b60008a815260200190815260200160002060020160009054906101000a900473ffffffffffffffffffffffffffffffffffffffff169550600b60008a815260200190815260200160002060030160009054906101000a900473ffffffffffffffffffffffffffffffffffffffff169450600b60008a81526020019081526020016000206004018054600181600116156101000203166002900480601f0160208091040260200160405190810160405280929190818152602001828054600181600116156101000203166002900480156116a15780601f10611676576101008083540402835291602001916116a1565b820191906000526020600020905b81548152906001019060200180831161168457829003601f168201915b50505050509350600b60008a81526020019081526020016000206005018054600181600116156101000203166002900480601f0160208091040260200160405190810160405280929190818152602001828054600181600116156101000203166002900480156117525780601f1061172757610100808354040283529160200191611752565b820191906000526020600020905b81548152906001019060200180831161173557829003601f168201915b50505050509250600b60008a8152602001908152602001600020600d018054600181600116156101000203166002900480601f0160208091040260200160405190810160405280929190818152602001828054600181600116156101000203166002900480156118035780601f106117d857610100808354040283529160200191611803565b820191906000526020600020905b8154815290600101906020018083116117e657829003601f168201915b50505050509150600b60008a8152602001908152602001600020600e0160019054906101000a900473ffffffffffffffffffffffffffffffffffffffff169050878787878787878797509750975097509750975097509750919395975091939597565b816001600881111561187457fe5b600b6000838152602001908152602001600020600e0160009054906101000a900460ff1660088111156118a357fe5b1415156118af57600080fd5b600b600084815260200190815260200160002060020160009054906101000a900473ffffffffffffffffffffffffffffffffffffffff168073ffffffffffffffffffffffffffffffffffffffff163373ffffffffffffffffffffffffffffffffffffffff1614151561192057600080fd5b61195f600b600086815260200190815260200160002060020160009054906101000a900473ffffffffffffffffffffffffffffffffffffffff16610fa6565b151561196757fe5b82600b60008681526020019081526020016000206008019080519060200190611991929190613339565b506002600b6000868152602001908152602001600020600e0160006101000a81548160ff021916908360088111156119c557fe5b02179055507fcca77f226148770c4f8d55e5386aad5a913d67b9f806d8ff665fbfc794a6db03846040518082815260200191505060405180910390a150505050565b6000611a1d826001612c1490919063ffffffff16565b9050919050565b60008060009054906101000a900473ffffffffffffffffffffffffffffffffffffffff16905090565b611a56336111dc565b1515611a6157600080fd5b611a6a81612f1e565b50565b6000611a83826002612c1490919063ffffffff16565b9050919050565b60008060009054906101000a900473ffffffffffffffffffffffffffffffffffffffff1673ffffffffffffffffffffffffffffffffffffffff163373ffffffffffffffffffffffffffffffffffffffff1614905090565b60008060009054906101000a900473ffffffffffffffffffffffffffffffffffffffff16905090565b611b1333612f78565b565b8160036008811115611b2357fe5b600b6000838152602001908152602001600020600e0160009054906101000a900460ff166008811115611b5257fe5b141515611b5e57600080fd5b600b600084815260200190815260200160002060020160009054906101000a900473ffffffffffffffffffffffffffffffffffffffff168073ffffffffffffffffffffffffffffffffffffffff163373ffffffffffffffffffffffffffffffffffffffff16141515611bcf57600080fd5b611bd833610fa6565b1515611be057fe5b82600b6000868152602001908152602001600020600f0160006101000a81548173ffffffffffffffffffffffffffffffffffffffff021916908373ffffffffffffffffffffffffffffffffffffffff16021790555082600b600086815260200190815260200160002060020160006101000a81548173ffffffffffffffffffffffffffffffffffffffff021916908373ffffffffffffffffffffffffffffffffffffffff160217905550611cc9600b6000868152602001908152602001600020600f0160009054906101000a900473ffffffffffffffffffffffffffffffffffffffff16612ab6565b6004600b6000868152602001908152602001600020600e0160006101000a81548160ff02191690836008811115611cfc57fe5b02179055507f02d925d05962a80b2780e7440067e5dd776501e603f64f0ea4a8cbba11180f0b846040518082815260200191505060405180910390a150505050565b8160026008811115611d4c57fe5b600b6000838152602001908152602001600020600e0160009054906101000a900460ff166008811115611d7b57fe5b141515611d8757600080fd5b600b600084815260200190815260200160002060020160009054906101000a900473ffffffffffffffffffffffffffffffffffffffff168073ffffffffffffffffffffffffffffffffffffffff163373ffffffffffffffffffffffffffffffffffffffff16141515611df857600080fd5b611e0133610fa6565b1515611e0957fe5b82600b60008681526020019081526020016000206009019080519060200190611e33929190613339565b506003600b6000868152602001908152602001600020600e0160006101000a81548160ff02191690836008811115611e6757fe5b02179055507ff09450c78091ed24f9106b3a7aebe710407acc3c6b507cf9c781f0fb565683cf846040518082815260200191505060405180910390a150505050565b8060006008811115611eb757fe5b600b6000838152602001908152602001600020600e0160009054906101000a900460ff166008811115611ee657fe5b141515611ef257600080fd5b600b6000838152602001908152602001600020600e0160019054906101000a900473ffffffffffffffffffffffffffffffffffffffff168073ffffffffffffffffffffffffffffffffffffffff163373ffffffffffffffffffffffffffffffffffffffff16141515611f6357600080fd5b611f6c33610fa6565b1515611f7457fe5b600b6000848152602001908152602001600020600e0160019054906101000a900473ffffffffffffffffffffffffffffffffffffffff16600b600085815260200190815260200160002060020160006101000a81548173ffffffffffffffffffffffffffffffffffffffff021916908373ffffffffffffffffffffffffffffffffffffffff16021790555061203e600b6000858152602001908152602001600020600e0160019054906101000a900473ffffffffffffffffffffffffffffffffffffffff16612fd2565b6001600b6000858152602001908152602001600020600e0160006101000a81548160ff0219169083600881111561207157fe5b02179055507f581d416ae9dff30c9305c2b35cb09ed5991897ab97804db29ccf92678e953160836040518082815260200191505060405180910390a1505050565b81600660088111156120c057fe5b600b6000838152602001908152602001600020600e0160009054906101000a900460ff1660088111156120ef57fe5b1415156120fb57600080fd5b600b600084815260200190815260200160002060020160009054906101000a900473ffffffffffffffffffffffffffffffffffffffff168073ffffffffffffffffffffffffffffffffffffffff163373ffffffffffffffffffffffffffffffffffffffff1614151561216c57600080fd5b612175336111dc565b151561217d57fe5b82600b6000868152602001908152602001600020600c01819055506007600b6000868152602001908152602001600020600e0160006101000a81548160ff021916908360088111156121cb57fe5b02179055507fa8142743f8f70a4c26f3691cf4ed59718381fb2f18070ec52be1f1022d855557846040518082815260200191505060405180910390a150505050565b612216336130cc565b565b816005600881111561222657fe5b600b6000838152602001908152602001600020600e0160009054906101000a900460ff16600881111561225557fe5b14151561226157600080fd5b600b600084815260200190815260200160002060020160009054906101000a900473ffffffffffffffffffffffffffffffffffffffff168073ffffffffffffffffffffffffffffffffffffffff163373ffffffffffffffffffffffffffffffffffffffff161415156122d257600080fd5b6122db33611a6d565b15156122e357fe5b82600b600086815260200190815260200160002060110160006101000a81548173ffffffffffffffffffffffffffffffffffffffff021916908373ffffffffffffffffffffffffffffffffffffffff1602179055506006600b6000868152602001908152602001600020600e0160006101000a81548160ff0219169083600881111561236b57fe5b021790555061237983612ab6565b7ff00b9a5725b80c54016f42114f6ed7792d22eecb116011c4afac29c57bef6c95846040518082815260200191505060405180910390a150505050565b61028060405190810160405280600a5481526020018a81526020018773ffffffffffffffffffffffffffffffffffffffff1681526020018773ffffffffffffffffffffffffffffffffffffffff1681526020018681526020018581526020018481526020018381526020016020604051908101604052806000815250815260200160206040519081016040528060008152508152602001600a548b018152602001828152602001600081526020018981526020016000600881111561247757fe5b81526020018873ffffffffffffffffffffffffffffffffffffffff168152602001600073ffffffffffffffffffffffffffffffffffffffff168152602001600073ffffffffffffffffffffffffffffffffffffffff168152602001600073ffffffffffffffffffffffffffffffffffffffff168152602001600073ffffffffffffffffffffffffffffffffffffffff16815250600b60008b8152602001908152602001600020600082015181600001556020820151816001015560408201518160020160006101000a81548173ffffffffffffffffffffffffffffffffffffffff021916908373ffffffffffffffffffffffffffffffffffffffff16021790555060608201518160030160006101000a81548173ffffffffffffffffffffffffffffffffffffffff021916908373ffffffffffffffffffffffffffffffffffffffff16021790555060808201518160040190805190602001906125db9291906133b9565b5060a08201518160050190805190602001906125f89291906133b9565b5060c08201518160060190805190602001906126159291906133b9565b5060e08201518160070190805190602001906126329291906133b9565b506101008201518160080190805190602001906126509291906133b9565b5061012082015181600901908051906020019061266e9291906133b9565b5061014082015181600a015561016082015181600b0190805190602001906126979291906133b9565b5061018082015181600c01556101a082015181600d0190805190602001906126c09291906133b9565b506101c082015181600e0160006101000a81548160ff021916908360088111156126e657fe5b02179055506101e082015181600e0160016101000a81548173ffffffffffffffffffffffffffffffffffffffff021916908373ffffffffffffffffffffffffffffffffffffffff16021790555061020082015181600f0160006101000a81548173ffffffffffffffffffffffffffffffffffffffff021916908373ffffffffffffffffffffffffffffffffffffffff1602179055506102208201518160100160006101000a81548173ffffffffffffffffffffffffffffffffffffffff021916908373ffffffffffffffffffffffffffffffffffffffff1602179055506102408201518160110160006101000a81548173ffffffffffffffffffffffffffffffffffffffff021916908373ffffffffffffffffffffffffffffffffffffffff1602179055506102608201518160120160006101000a81548173ffffffffffffffffffffffffffffffffffffffff021916908373ffffffffffffffffffffffffffffffffffffffff1602179055509050506001600a5401600a819055506000600b60008b8152602001908152602001600020600e0160006101000a81548160ff0219169083600881111561289557fe5b02179055507fc79aa0725ad703e081ade69b3bd4e49714a6598cb82fd7a1f1ab4052e7afcb55896040518082815260200191505060405180910390a1505050505050505050565b600081600760088111156128ec57fe5b600b6000838152602001908152602001600020600e0160009054906101000a900460ff16600881111561291b57fe5b14151561292757600080fd5b61293033611a07565b151561293857fe5b33600b600085815260200190815260200160002060120160006101000a81548173ffffffffffffffffffffffffffffffffffffffff021916908373ffffffffffffffffffffffffffffffffffffffff160217905550600b6000848152602001908152602001600020600c015491506008600b6000858152602001908152602001600020600e0160006101000a81548160ff021916908360088111156129d957fe5b0217905550600b600084815260200190815260200160002060110160009054906101000a900473ffffffffffffffffffffffffffffffffffffffff1673ffffffffffffffffffffffffffffffffffffffff166108fc839081150290604051600060405180830381858888f19350505050158015612a5a573d6000803e3d6000fd5b50612a6433612fd2565b7f653d56639fee6b566a5c804764e9689de38645f0b733df89a36a1b7b42173dd8836040518082815260200191505060405180910390a1505050565b612aa933613126565b565b612ab433613180565b565b612abe611a8a565b1515612ac957600080fd5b612ad281612fd2565b50565b8060046008811115612ae357fe5b600b6000838152602001908152602001600020600e0160009054906101000a900460ff166008811115612b1257fe5b141515612b1e57600080fd5b600b600083815260200190815260200160002060100160009054906101000a900473ffffffffffffffffffffffffffffffffffffffff168073ffffffffffffffffffffffffffffffffffffffff163373ffffffffffffffffffffffffffffffffffffffff16141515612b8f57600080fd5b612b9833610f69565b1515612ba057fe5b6005600b6000858152602001908152602001600020600e0160006101000a81548160ff02191690836008811115612bd357fe5b02179055507f9b3b66e2380b690bae22c73ef1428fb0c91e72fe14a4b6defa13035214187aff836040518082815260200191505060405180910390a1505050565b60008073ffffffffffffffffffffffffffffffffffffffff168273ffffffffffffffffffffffffffffffffffffffff1614151515612c5157600080fd5b8260000160008373ffffffffffffffffffffffffffffffffffffffff1673ffffffffffffffffffffffffffffffffffffffff16815260200190815260200160002060009054906101000a900460ff16905092915050565b612cbc8160016131da90919063ffffffff16565b8073ffffffffffffffffffffffffffffffffffffffff167f28b26e7a3d20aedbc5f8f2ebf7da671c0491723a2b78f47a097b0e46dee0714260405160405180910390a250565b612d168160056131da90919063ffffffff16565b8073ffffffffffffffffffffffffffffffffffffffff167f6fdc0147105e43e21da80a75b42d0fd464060d5e1a34b0cefbf0b4ccfc2e36a160405160405180910390a250565b612d708160046131da90919063ffffffff16565b8073ffffffffffffffffffffffffffffffffffffffff167f7e50d052c9339ec749fa526d5f5266a1ba556e8cc2160cc2649e104dc8927e9c60405160405180910390a250565b612dca8160036131da90919063ffffffff16565b8073ffffffffffffffffffffffffffffffffffffffff167fcbfc96fa35f269722f7abab67c3e11fbfd63618e2e593bdf481f2818e8e8304260405160405180910390a250565b612e2481600161328a90919063ffffffff16565b8073ffffffffffffffffffffffffffffffffffffffff167fe3f5ed5f263f1f01764a96edfc7d025f511ec5f7d180e8816908b78bcf74f09860405160405180910390a250565b612e7e81600261328a90919063ffffffff16565b8073ffffffffffffffffffffffffffffffffffffffff167f126174f6cf49c81cdb4a9214c6b8f037bef55b4ec31e4fc776cea2a1c8a88d5960405160405180910390a250565b612ed88160026131da90919063ffffffff16565b8073ffffffffffffffffffffffffffffffffffffffff167fddbf200aa634dc3fb81cfd68583dd1040d1c751d335e1d86b631bde3e977fea860405160405180910390a250565b612f328160066131da90919063ffffffff16565b8073ffffffffffffffffffffffffffffffffffffffff167f71ae26cad02663e3d92efd6ec56031a80d74a20c0ab4183faa8bf262261c9baa60405160405180910390a250565b612f8c81600461328a90919063ffffffff16565b8073ffffffffffffffffffffffffffffffffffffffff167f3d3ce02a6873a67f7eef5d3a13b9ceaee08bb80200c3349e105f4c8ffce691bd60405160405180910390a250565b600073ffffffffffffffffffffffffffffffffffffffff168173ffffffffffffffffffffffffffffffffffffffff161415151561300e57600080fd5b8073ffffffffffffffffffffffffffffffffffffffff166000809054906101000a900473ffffffffffffffffffffffffffffffffffffffff1673ffffffffffffffffffffffffffffffffffffffff167f5c486528ec3e3f0ea91181cff8116f02bfa350e03b8b6f12e00765adbb5af85c60405160405180910390a3806000806101000a81548173ffffffffffffffffffffffffffffffffffffffff021916908373ffffffffffffffffffffffffffffffffffffffff16021790555050565b6130e081600361328a90919063ffffffff16565b8073ffffffffffffffffffffffffffffffffffffffff167f9d7bad3f21c51eaf001a18afc7f3666e2f9413dafcb58ea9413eeea76b6a2cd360405160405180910390a250565b61313a81600561328a90919063ffffffff16565b8073ffffffffffffffffffffffffffffffffffffffff167fafa2737b2090fa39c66b7348625f0c03726240f724defbc6216d679506f9444160405160405180910390a250565b61319481600661328a90919063ffffffff16565b8073ffffffffffffffffffffffffffffffffffffffff167fdb7176e79cffef81cb01767dd0447a0b24bb72ca9778d4b245581086b2a7e6db60405160405180910390a250565b600073ffffffffffffffffffffffffffffffffffffffff168173ffffffffffffffffffffffffffffffffffffffff161415151561321657600080fd5b6132208282612c14565b15151561322c57600080fd5b60018260000160008373ffffffffffffffffffffffffffffffffffffffff1673ffffffffffffffffffffffffffffffffffffffff16815260200190815260200160002060006101000a81548160ff0219169083151502179055505050565b600073ffffffffffffffffffffffffffffffffffffffff168173ffffffffffffffffffffffffffffffffffffffff16141515156132c657600080fd5b6132d08282612c14565b15156132db57600080fd5b60008260000160008373ffffffffffffffffffffffffffffffffffffffff1673ffffffffffffffffffffffffffffffffffffffff16815260200190815260200160002060006101000a81548160ff0219169083151502179055505050565b828054600181600116156101000203166002900490600052602060002090601f016020900481019282601f1061337a57805160ff19168380011785556133a8565b828001600101855582156133a8579182015b828111156133a757825182559160200191906001019061338c565b5b5090506133b59190613439565b5090565b828054600181600116156101000203166002900490600052602060002090601f016020900481019282601f106133fa57805160ff1916838001178555613428565b82800160010185558215613428579182015b8281111561342757825182559160200191906001019061340c565b5b5090506134359190613439565b5090565b61345b91905b8082111561345757600081600090555060010161343f565b5090565b905600a165627a7a723058207b0b3c81c9d291dd67be2aae04c238f10323d5fc3c55281f4b08199caef0816c0029",
  "source": "pragma solidity ^0.4.24;\n\n// Import Core Libraries\nimport \"../musiccore/Ownable.sol\";\n\n// Import Roles Libraries\nimport \"../musicaccesscontrol/ArtistRole.sol\";\nimport \"../musicaccesscontrol/RecordCompanyRole.sol\";\nimport \"../musicaccesscontrol/DistributorRole.sol\";\nimport \"../musicaccesscontrol/FactoryRole.sol\";\nimport \"../musicaccesscontrol/RetailerRole.sol\";\nimport \"../musicaccesscontrol/ConsumerRole.sol\";\n\n// Define a contract 'Supplychain'\ncontract SupplyChain is Ownable, ConsumerRole, DistributorRole, ArtistRole, RecordCompanyRole, FactoryRole, RetailerRole {\n\n  ArtistRole private artists;\n\n  // Define 'owner'\n  address _owner;\n\n  // Define a variable called 'upc' for Universal Product Code (UPC)\n  uint  upc;\n\n  // Define a variable called 'sku' for Stock Keeping Unit (SKU)\n  uint  sku;\n\n  // Define a public mapping 'items' that maps the UPC to an Item.\n  mapping (uint => Item) items;\n\n  // Define a public mapping 'itemsHistory' that maps the UPC to an array of TxHash, \n  // that track its journey through the supply chain -- to be sent from DApp.\n  mapping (uint => string[]) itemsHistory;\n  \n  // Define enum 'State' with the following values:\n  enum State \n  { \n    Composed,     // 0\n    Paid,         // 1\n    Mixed,        // 2\n    Mastered,     // 3\n    Contracted,   // 4\n    Packed,       // 5\n    Shipped,      // 6\n    Received,     // 7\n    Purchased     // 8\n    }\n\n  State constant defaultState = State.Composed;\n\n  // Define a struct 'Item' with the following fields:\n  struct Item {\n    uint    sku;  // Stock Keeping Unit (SKU)\n    uint    upc; // Universal Product Code (UPC), generated by the Record Company, goes on the package, can be verified by the Consumer\n    address ownerID;  // Metamask-Ethereum address of the current owner as the product moves through 8 stages\n    address originArtistID; // Metamask-Ethereum address of the Artist\n    string  originArtistName; // Artist Name\n    string  originArtistInformation;  // Artist Information\n    string  originRecordCompanyLatitude; // Record Company Latitude\n    string  originRecordCompanyLongitude;  // Record Company Longitude\n    string  musicMixInfo;  // Mixing authoring info\n    string  musicMasterInfo; // mastering info\n    uint    productID;  // Product ID potentially a combination of upc + sku\n    string  productNotes; // Product Notes\n    uint    productPrice; // Product Price\n    string  musicTitle;    // Music Title\n    State   itemState;  // Product State as represented in the enum above\n    address recordCompanyID;  // Metamask-Ethereum address of the Record Company\n    address distributorID;  // Metamask-Ethereum address of the Distributor\n    address factoryID;  // Metamask-Ethereum address of the Case (Plastic) Factory\n    address retailerID; // Metamask-Ethereum address of the Retailer\n    address consumerID; // Metamask-Ethereum address of the Consumer\n  }\n\n  // Define 9 events with the same 9 state values and accept 'upc' as input argument\n  event Composed(uint upc);\n  event Paid(uint upc);\n  event Mixed(uint upc);\n  event Mastered(uint upc);\n  event Contracted(uint upc);\n  event Packed(uint upc);\n  event Shipped(uint upc);\n  event Received(uint upc);\n  event Purchased(uint upc);\n\n  // Define a modifer that checks to see if msg.sender == owner of the contract (inherited)\n  /*modifier onlyOwner() {\n    require(msg.sender == owner);\n    _;\n  }*/\n\n  // Define a modifer that verifies the Caller\n  modifier verifyCaller (address _address) {\n    require(msg.sender == _address); \n    _;\n  }\n\n  // Define a modifier that checks if the paid amount is sufficient to cover the price\n  modifier paidEnough(uint _price) { \n    require(msg.value >= _price); \n    _;\n  }\n  \n  // Define a modifier that checks the price and refunds the remaining balance\n  modifier checkValue(uint _upc) {\n    _;\n    uint _price = items[_upc].productPrice;\n    uint amountToReturn = msg.value - _price;\n    items[_upc].consumerID.transfer(amountToReturn);\n  }\n\n  // Define a modifier that checks if an item.state of a upc is Composed\n  modifier composed(uint _upc) {\n    require(items[_upc].itemState == State.Composed);\n    _;\n  }\n\n  // Define a modifier that checks if an item.state of a upc is Paid\n  modifier paid(uint _upc) {\n    require(items[_upc].itemState == State.Paid);\n    _;\n  }\n  \n  // Define a modifier that checks if an item.state of a upc is Mixed\n  modifier mixed(uint _upc) {\n    require(items[_upc].itemState == State.Mixed);\n    _;\n  }\n\n  // Define a modifier that checks if an item.state of a upc is Mastered\n  modifier mastered(uint _upc) {\n    require(items[_upc].itemState == State.Mastered);\n    _;\n  }\n\n  // Define a modifier that checks if an item.state of a upc is Contracted\n  modifier contracted(uint _upc) {\n    require(items[_upc].itemState == State.Contracted);\n    _;\n  }\n\n  // Define a modifier that checks if an item.state of a upc is Packed\n  modifier packed(uint _upc) {\n    require(items[_upc].itemState == State.Packed);\n    _;\n  }\n  \n  // Define a modifier that checks if an item.state of a upc is Shipped\n  modifier shipped(uint _upc) {\n    require(items[_upc].itemState == State.Shipped);\n    _;\n  }\n\n  // Define a modifier that checks if an item.state of a upc is Received\n  modifier received(uint _upc) {\n    require(items[_upc].itemState == State.Received);\n    _;\n  }\n\n  // Define a modifier that checks if an item.state of a upc is Purchased\n  modifier purchased(uint _upc) {\n    require(items[_upc].itemState == State.Purchased);\n    _;\n  }\n\n  // In the constructor set 'owner' to the address that instantiated the contract\n  // and set 'sku' to 1\n  // and set 'upc' to 1\n  constructor() public payable {\n    _owner = msg.sender;\n    sku = 1;\n    upc = 1;\n  }\n\n  // Define a function 'kill' if required\n  function kill() public {\n    if (msg.sender == _owner) {\n      selfdestruct(_owner);\n    }\n  }\n\n  // Define a function 'composeItem' that allows an artist to mark an item 'Composed'\n  // It's a tradicional music recording business such a record company is binded to the project since its conception.\n  function composeItem(uint _upc, string _musicTitle, address _recordCompanyID, address _originArtistID, string _originArtistName, string _originArtistInformation, string  _originRecordCompanyLatitude, string  _originRecordCompanyLongitude, string  _productNotes) public \n  {\n    //assert (isArtist (msg.sender));\n    //assert (isRecordCompany(_recordCompanyID));\n\n    // Add the new item as part of Composition\n    items[_upc] = Item ({\n      upc: _upc, \n      sku: sku, \n      ownerID: _originArtistID, //msg.sender,\n      originArtistID: _originArtistID,\n      originArtistName: _originArtistName,\n      originArtistInformation: _originArtistInformation,\n      originRecordCompanyLatitude: _originRecordCompanyLatitude,\n      originRecordCompanyLongitude: _originRecordCompanyLongitude,\n      productNotes: _productNotes,\n      musicTitle: _musicTitle,\n      itemState: State.Composed,\n      recordCompanyID: _recordCompanyID,\n      distributorID: 0,\n      factoryID: 0,\n      retailerID: 0,\n      consumerID: 0,\n      productPrice: 0,\n      musicMasterInfo: \"\",\n      musicMixInfo: \"\",\n      productID: _upc + sku\n      });\n\n    // Increment sku\n    sku = sku + 1;\n    items[_upc].itemState = State.Composed;\n\n    // Emit the appropriate event\n    emit Composed (_upc);    \n  }\n\n  // Define a function 'payRoyaltyItem' that allows a record company to pay for a composition and Artist to mark an item as 'Paid'\n  function payRoyaltyItem(uint _upc) composed(_upc) verifyCaller(items[_upc].recordCompanyID) public\n  // Call modifier to check if upc has passed previous supply chain stage (music is composed)\n  \n  // Call modifier to verify caller of this function - Music ownership will be transfered to Record Company\n  \n  {\n    assert (isRecordCompany(msg.sender));\n    // Update the appropriate fields\n    items[_upc].ownerID = items[_upc].recordCompanyID;\n\n    _transferOwnership (items[_upc].recordCompanyID);\n    items[_upc].itemState = State.Paid;\n\n    // Emit the appropriate event\n    emit Paid (_upc);\n  }\n\n  // Define a function 'createMusicMix' that allows a record company to mark an item 'Mixed'\n  function createMusicMix(uint _upc, string _musicMixInfo) paid(_upc) verifyCaller(items[_upc].ownerID) public \n  // Call modifier to check if upc has passed previous supply chain stage (Paid)\n  \n  // Call modifier to verify caller of this function\n  \n  {\n    assert (isRecordCompany(items[_upc].ownerID));\n\n    // Update the appropriate fields\n    items[_upc].musicMixInfo = _musicMixInfo;\n    items[_upc].itemState = State.Mixed;\n\n    // Emit the appropriate event\n    emit Mixed (_upc);\n  }\n\n  // Define a function 'createMusicMaster' that allows a record company to mark an item 'Mastered'\n  function createMusicMaster(uint _upc, string _musicMasterInfo) mixed(_upc) verifyCaller(items[_upc].ownerID) public \n  // Call modifier to check if upc has passed previous supply chain stage (Mixed)\n  \n  // Call modifier to verify caller of this function\n  \n  {\n    assert (isRecordCompany(msg.sender));\n\n    // Update the appropriate fields\n    items[_upc].musicMasterInfo = _musicMasterInfo;\n    items[_upc].itemState =  State.Mastered;\n\n    // Emit the appropriate event\n    emit Mastered (_upc);\n  }\n\n  // Define a function 'sellItem' (payContract by distributor) that allows a record company to mark an music/Album 'ForSaleContracted' and transfer ownership\n  function sellItem(uint _upc, address _distributorID) mastered(_upc) verifyCaller(items[_upc].ownerID) public\n  // Call modifier to check if upc has passed previous supply chain stage\n  \n  // Call modifier to verify caller of this function\n  \n  {\n    assert (isRecordCompany(msg.sender));\n    //assert (isDistributor(_distributorID));\n\n    // Update the appropriate fields\n    items[_upc].distributorID = _distributorID;\n    items[_upc].ownerID = _distributorID;\n\n    transferOwnership (items[_upc].distributorID);\n    items[_upc].itemState =  State.Contracted;\n\n    // Emit the appropriate event\n    emit Contracted (_upc); \n  }\n\n  // Define a function 'buyDiscsAndCases' that allows the disributor to buy material for physical product enclosure\n  // OBS: For simplification reasons we are not modeling EAN and stock control functionalities\n  // Also we are not using the above defined modifiers to check if the item is available for sale, if the buyer has paid enough, \n  // and any excess ether sent is refunded back to the buyer\n  function buyDiscsAndCases(uint _upc, address _factoryID) contracted(_upc) verifyCaller(items[_upc].ownerID) public //payable \n    // Call modifier to check if upc has passed previous supply chain stage\n    \n    // Call modifer to check if buyer has paid enough (not implemented inside the blockchain - will be paid not in Ether)\n    // Call modifer to send any excess ether back to buyer (not implemented inside the blockchain - will be paid not in Ether)\n    \n    {\n      assert (isDistributor(msg.sender));\n      //assert (isFactory(_factoryID));\n\n      // Update the appropriate fields\n      items[_upc].factoryID = _factoryID;\n      \n      // Transfer money to factory (not in the Etherium network)\n      \n      // emit the appropriate event (none in here)\n      \n  }\n\n// Define a function 'packItem' that allows a plastic factory to mark an item 'Packed'\n  function packItem(uint _upc) contracted(_upc) verifyCaller(items[_upc].factoryID) public \n  // Call modifier to check if upc has passed previous supply chain stage\n  \n  // Call modifier to verify caller of this function\n  \n  {\n    assert (isFactory(msg.sender));\n    // Update the appropriate fields\n    items[_upc].itemState =  State.Packed;\n    \n    // Emit the appropriate event\n    emit Packed (_upc);\n  }\n\n  // Define a function 'shipItem' that allows the distributor to mark an item 'Shipped'\n  // Use the above modifers to check if the item is sold\n  function shipItem(uint _upc, address _retailerID) packed(_upc) verifyCaller(items[_upc].ownerID) public\n    // Call modifier to check if upc has passed previous supply chain stage\n    \n    // Call modifier to verify caller of this function\n    \n    {\n      assert (isDistributor(msg.sender));\n    \n      // Update the appropriate fields\n      items[_upc].retailerID = _retailerID;\n      items[_upc].itemState =  State.Shipped;\n\n      transferOwnership (_retailerID);\n      // Emit the appropriate event\n      emit Shipped (_upc);\n  }\n\n  // Define a function 'receiveItem' that allows the retailer to mark an item 'Received'\n  // Use the above modifiers to check if the item is shipped.\n  // To simplify, here we set up retail price\n  function receiveItem(uint _upc, uint _price) shipped(_upc) verifyCaller(items[_upc].ownerID) public \n    // Call modifier to check if upc has passed previous supply chain stage\n    \n    // Access Control List enforced by calling Smart Contract / DApp\n    {\n      assert (isRetailer(msg.sender));\n\n      // Update the appropriate fields\n      items[_upc].productPrice = _price;\n      items[_upc].itemState =  State.Received;\n\n      // Emit the appropriate event\n      emit Received (_upc);\n  }\n\n  // Define a function 'purchaseItem' that allows the consumer to mark an item 'Purchased'\n  // Use the above modifiers to check if the item is received\n  function purchaseItem(uint _upc) received(_upc) public payable\n    // Call modifier to check if upc has passed previous supply chain stage\n    \n    // Access Control List enforced by calling Smart Contract / DApp\n    {\n      // Call modifer to check if buyer has paid enough\n      // Call modifer to send any excess ether back to buyer\n\n      assert (isConsumer(msg.sender));\n\n      // Update the appropriate fields    \n      items[_upc].consumerID = msg.sender;\n      uint price = items[_upc].productPrice;\n      \n      items[_upc].itemState =  State.Purchased;\n      // Transfer money to seller\n      items[_upc].retailerID.transfer(price);\n      //items[_upc].ownerID = msg.sender;\n\n      _transferOwnership (msg.sender);\n        \n      // emit the appropriate event\n      emit Purchased(_upc);\n  }\n\n  // Define a function 'fetchItemBufferOne' that fetches the data\n  function fetchItemBufferOne(uint _upc) public view returns \n  (\n  uint    itemSKU,\n  uint    itemUPC,\n  address ownerID,\n  address originArtistID,\n  string  originArtistName,\n  string  originArtistInformation,\n  string  musicTitle,\n  address recordCompanyID\n  ) \n  {\n    // Assign values to the 8 parameters\n    itemSKU = items[_upc].sku;\n    itemUPC = items[_upc].upc;\n    ownerID = items[_upc].ownerID;\n    originArtistID =items[_upc].originArtistID;\n    originArtistName = items[_upc].originArtistName;\n    originArtistInformation = items[_upc].originArtistInformation;\n    musicTitle = items[_upc].musicTitle;\n    recordCompanyID = items[_upc].recordCompanyID;\n      \n    return \n    (\n    itemSKU,\n    itemUPC,\n    ownerID,\n    originArtistID,\n    originArtistName,\n    originArtistInformation,\n    musicTitle,\n    recordCompanyID\n    );\n  }\n\n  // Define a function 'fetchItemBufferTwo' that fetches the data\n  function fetchItemBufferTwo(uint _upc) public view returns \n  (\n  uint    itemSKU,\n  uint    itemUPC,\n  uint    productID,\n  string  productNotes,\n  uint    productPrice,\n  uint    itemState,\n  address distributorID,\n  address retailerID,\n  address consumerID\n  ) \n  {\n    // Assign values to the 9 parameters\n    itemSKU = items[_upc].sku;\n    itemUPC = items[_upc].upc;\n    productID = items[_upc].productID;\n    productNotes = items[_upc].productNotes;\n    productPrice = items[_upc].productPrice;\n    itemState = uint(items[_upc].itemState);\n    distributorID = items[_upc].distributorID;\n    retailerID = items[_upc].retailerID;\n    consumerID = items[_upc].consumerID;\n\n    return \n    (\n    itemSKU,\n    itemUPC,\n    productID,\n    productNotes,\n    productPrice,\n    itemState,\n    distributorID,\n    retailerID,\n    consumerID\n    );\n  }\n}\n",
  "sourcePath": "C:\\Research\\Udacity\\Blockchain\\6. Term 2  Blockchain Developer Architecture and Applications\\Projects\\Proj2 - Architect Blockchain supply Chain B\\CODE\\Final Project 6 Part B\\project-6\\contracts\\musicbase\\SupplyChain.sol",
  "compiler": {
    "name": "solc",
    "version": "0.4.24+commit.e67f0147.Emscripten.clang"
  },
  "schemaVersion": "2.0.1",
  "updatedAt": "2019-03-18T22:25:59.679Z"
}